{
  "transactions": [
    {
      "hash": "0x8e558ebc4f47996bf52b9c8248cfcaa97c756fe9e796770360d7b8f1e2e2ea00",
      "transactionType": "CALL",
      "contractName": "TokenAdminRegistry",
      "contractAddress": "0x95f29fee11c5c55d26cccf1db6772de953b37b82",
      "function": "acceptAdminRole(address)",
      "arguments": [
        "0x1e92b3D42520fc9755730a80537b55Bb8731A295"
      ],
      "transaction": {
        "from": "0x0aacd99bc8378327df99543036a89c0ea5793e66",
        "to": "0x95f29fee11c5c55d26cccf1db6772de953b37b82",
        "gas": "0x10611",
        "value": "0x0",
        "input": "0x156194da0000000000000000000000001e92b3d42520fc9755730a80537b55bb8731a295",
        "nonce": "0x87",
        "chainId": "0xaa36a7"
      },
      "additionalContracts": [],
      "isFixedGasLimit": false
    }
  ],
  "receipts": [
    {
      "status": "0x1",
      "cumulativeGasUsed": "0x172bdec",
      "logs": [
        {
          "address": "0x95f29fee11c5c55d26cccf1db6772de953b37b82",
          "topics": [
            "0x399b55200f7f639a63d76efe3dcfa9156ce367058d6b673041b84a628885f5a7",
            "0x0000000000000000000000001e92b3d42520fc9755730a80537b55bb8731a295",
            "0x0000000000000000000000000aacd99bc8378327df99543036a89c0ea5793e66"
          ],
          "data": "0x",
          "blockHash": "0x582ea7b4a8c81ed78cb00b45b45f45d56b25e3297989bb50a4ebf92888b4a833",
          "blockNumber": "0xa3eca3",
          "blockTimestamp": "0x69ef6928",
          "transactionHash": "0x8e558ebc4f47996bf52b9c8248cfcaa97c756fe9e796770360d7b8f1e2e2ea00",
          "transactionIndex": "0x56",
          "logIndex": "0x53e",
          "removed": false
        }
      ],
      "logsBloom": "0x00000000000000000000000000000000000000000000001000000000000000000000000000000000000000000001000000000000000000000000000000000000000000000000000000000000000000000000000000008000000000000000000000000000000000001000000000000000000000000000000000000000000000000000800000000000000000000000000000000000000000000000000000000000000000000000000000000000000000000000000000000008000000000000000008000000000004000000000000000000000000000000000000000000000000000000000020000000000001000000000000000000000400000000020000000000",
      "type": "0x2",
      "transactionHash": "0x8e558ebc4f47996bf52b9c8248cfcaa97c756fe9e796770360d7b8f1e2e2ea00",
      "transactionIndex": "0x56",
      "blockHash": "0x582ea7b4a8c81ed78cb00b45b45f45d56b25e3297989bb50a4ebf92888b4a833",
      "blockNumber": "0xa3eca3",
      "gasUsed": "0xb331",
      "effectiveGasPrice": "0x108bd677",
      "from": "0x0aacd99bc8378327df99543036a89c0ea5793e66",
      "to": "0x95f29fee11c5c55d26cccf1db6772de953b37b82",
      "contractAddress": null
    }
  ],
  "libraries": [],
  "pending": [],
  "returns": {},
  "timestamp": 1777297705130,
  "chain": 11155111,
  "commit": "495b887"
}