{
  "transactions": [
    {
      "hash": "0xeff12aa0e760b9bea002db3c6354ea4459857c80b20c711f1c276a188e5be754",
      "transactionType": "CALL",
      "contractName": null,
      "contractAddress": "0x736d0bbb318c1b27ff686cd19804094e66250e17",
      "function": "acceptAdminRole(address)",
      "arguments": [
        "0x431306040c181E768C4301a7bfD4fC6a770E833F"
      ],
      "transaction": {
        "from": "0x0b332c99fd6511ca9faf9654dfcf18c575941094",
        "to": "0x736d0bbb318c1b27ff686cd19804094e66250e17",
        "gas": "0x10611",
        "value": "0x0",
        "input": "0x156194da000000000000000000000000431306040c181e768c4301a7bfd4fc6a770e833f",
        "nonce": "0x5",
        "chainId": "0x14a34"
      },
      "additionalContracts": [],
      "isFixedGasLimit": false
    }
  ],
  "receipts": [
    {
      "status": "0x1",
      "cumulativeGasUsed": "0x9e2dd1",
      "logs": [
        {
          "address": "0x736d0bbb318c1b27ff686cd19804094e66250e17",
          "topics": [
            "0x399b55200f7f639a63d76efe3dcfa9156ce367058d6b673041b84a628885f5a7",
            "0x000000000000000000000000431306040c181e768c4301a7bfd4fc6a770e833f",
            "0x0000000000000000000000000b332c99fd6511ca9faf9654dfcf18c575941094"
          ],
          "data": "0x",
          "blockHash": "0x632171533504f8e8051c55477a5e66998a9065e210707abf4df195a18993d054",
          "blockNumber": "0x20cfb84",
          "blockTimestamp": "0x692d55e8",
          "transactionHash": "0xeff12aa0e760b9bea002db3c6354ea4459857c80b20c711f1c276a188e5be754",
          "transactionIndex": "0x1b",
          "logIndex": "0xe9",
          "removed": false
        }
      ],
      "logsBloom": "0x00000000000000000000000000000000010000000000001000000000000000000000000000000000000000000000000000000000000000000000000000000000000000000000000000000000000000000000000000000004000000000000000000000000000000000000000000000000000040000000000000000000000000000000000000000000000000000000000000000000000000000000080000000000000000000000000000000000000000000000020000000000000000000000000001000000000004000000000000000000000000000000020000000000000000000000000000000000000000000000000000000002000400000000800000000000",
      "type": "0x2",
      "transactionHash": "0xeff12aa0e760b9bea002db3c6354ea4459857c80b20c711f1c276a188e5be754",
      "transactionIndex": "0x1b",
      "blockHash": "0x632171533504f8e8051c55477a5e66998a9065e210707abf4df195a18993d054",
      "blockNumber": "0x20cfb84",
      "gasUsed": "0xb331",
      "effectiveGasPrice": "0x1c0032",
      "blobGasUsed": "0x79e0",
      "from": "0x0b332c99fd6511ca9faf9654dfcf18c575941094",
      "to": "0x736d0bbb318c1b27ff686cd19804094e66250e17",
      "contractAddress": null,
      "daFootprintGasScalar": "0x138",
      "l1BaseFeeScalar": "0x44d",
      "l1BlobBaseFee": "0x1",
      "l1BlobBaseFeeScalar": "0xa118b",
      "l1Fee": "0x53",
      "l1GasPrice": "0xa",
      "l1GasUsed": "0x640"
    }
  ],
  "libraries": [],
  "pending": [],
  "returns": {},
  "timestamp": 1764578792,
  "chain": 84532,
  "commit": null
}