{
  "transactions": [
    {
      "hash": "0x5da8ff28874ad87cc908b51da64385389e842c13b651c4df1ba7019ca2221f62",
      "transactionType": "CALL",
      "contractName": "TokenAdminRegistry",
      "contractAddress": "0x736d0bbb318c1b27ff686cd19804094e66250e17",
      "function": "acceptAdminRole(address)",
      "arguments": [
        "0x102Acb6408E4a568D9dD4113BB95a5c0b76d08AC"
      ],
      "transaction": {
        "from": "0x0aacd99bc8378327df99543036a89c0ea5793e66",
        "to": "0x736d0bbb318c1b27ff686cd19804094e66250e17",
        "gas": "0x10611",
        "value": "0x0",
        "input": "0x156194da000000000000000000000000102acb6408e4a568d9dd4113bb95a5c0b76d08ac",
        "nonce": "0x5",
        "chainId": "0x14a34"
      },
      "additionalContracts": [],
      "isFixedGasLimit": false
    }
  ],
  "receipts": [
    {
      "status": "0x1",
      "cumulativeGasUsed": "0x265d86",
      "logs": [
        {
          "address": "0x736d0bbb318c1b27ff686cd19804094e66250e17",
          "topics": [
            "0x399b55200f7f639a63d76efe3dcfa9156ce367058d6b673041b84a628885f5a7",
            "0x000000000000000000000000102acb6408e4a568d9dd4113bb95a5c0b76d08ac",
            "0x0000000000000000000000000aacd99bc8378327df99543036a89c0ea5793e66"
          ],
          "data": "0x",
          "blockHash": "0x0000000000000000000000000000000000000000000000000000000000000000",
          "blockNumber": "0x26e1008",
          "blockTimestamp": "0x69ef7ef0",
          "transactionHash": "0x5da8ff28874ad87cc908b51da64385389e842c13b651c4df1ba7019ca2221f62",
          "transactionIndex": "0xd",
          "logIndex": "0x34",
          "removed": false
        }
      ],
      "logsBloom": "0x00000000000000000000000000000000000000000000001000000000000000000000000000080000000000000005000000000000000000000000000000000000000000000000000000000000000000000000000000000000000000000000000000000000000000001000000000000000000000000000000000000000000000000000000000000000000000000000000000000000000000000000000000000000000000000000000000000000000000000000020000000000000000000000000009000000000004000000000000000000000000000000020000000000000000000000000000000000000000000000000000000000000400000000020000000000",
      "type": "0x2",
      "transactionHash": "0x5da8ff28874ad87cc908b51da64385389e842c13b651c4df1ba7019ca2221f62",
      "transactionIndex": "0xd",
      "blockHash": "0x0000000000000000000000000000000000000000000000000000000000000000",
      "blockNumber": "0x26e1008",
      "gasUsed": "0xb331",
      "effectiveGasPrice": "0x5b8d80",
      "blobGasUsed": "0x39d0",
      "from": "0x0aacd99bc8378327df99543036a89c0ea5793e66",
      "to": "0x736d0bbb318c1b27ff686cd19804094e66250e17",
      "contractAddress": null,
      "daFootprintGasScalar": "0x94",
      "l1BaseFeeScalar": "0x44d",
      "l1BlobBaseFee": "0x772caf",
      "l1BlobBaseFeeScalar": "0xa118b",
      "l1Fee": "0xede87919",
      "l1GasPrice": "0x7b4f67a",
      "l1GasUsed": "0x640"
    }
  ],
  "libraries": [],
  "pending": [],
  "returns": {},
  "timestamp": 1777303279315,
  "chain": 84532,
  "commit": "495b887"
}