{
  "transactions": [
    {
      "hash": "0x5e45220d005cecfd24a91956e39de2dd1ced699dc9b17ef84395feaa27aa9564",
      "transactionType": "CALL",
      "contractName": null,
      "contractAddress": "0xdc1d17004a2a724d5aa9f6b428c56814abd156d9",
      "function": "mint(address,uint256)",
      "arguments": [
        "0x0b332c99Fd6511Ca9FAf9654DfcF18C575941094",
        "1000000000000000000000"
      ],
      "transaction": {
        "from": "0x0b332c99fd6511ca9faf9654dfcf18c575941094",
        "to": "0xdc1d17004a2a724d5aa9f6b428c56814abd156d9",
        "gas": "0x17de6",
        "value": "0x0",
        "input": "0x40c10f190000000000000000000000000b332c99fd6511ca9faf9654dfcf18c57594109400000000000000000000000000000000000000000000003635c9adc5dea00000",
        "nonce": "0x89",
        "chainId": "0xaa36a7"
      },
      "additionalContracts": [],
      "isFixedGasLimit": false
    }
  ],
  "receipts": [
    {
      "status": "0x1",
      "cumulativeGasUsed": "0x11275e6",
      "logs": [
        {
          "address": "0xdc1d17004a2a724d5aa9f6b428c56814abd156d9",
          "topics": [
            "0xddf252ad1be2c89b69c2b068fc378daa952ba7f163c4a11628f55a4df523b3ef",
            "0x0000000000000000000000000000000000000000000000000000000000000000",
            "0x0000000000000000000000000b332c99fd6511ca9faf9654dfcf18c575941094"
          ],
          "data": "0x00000000000000000000000000000000000000000000003635c9adc5dea00000",
          "blockHash": "0x57ff2768fa23f336217fff8a73a9b235c6da937c3e53c84306345bc627bcacc6",
          "blockNumber": "0x94b107",
          "blockTimestamp": "0x692d56a0",
          "transactionHash": "0x5e45220d005cecfd24a91956e39de2dd1ced699dc9b17ef84395feaa27aa9564",
          "transactionIndex": "0x45",
          "logIndex": "0x76",
          "removed": false
        }
      ],
      "logsBloom": "0x00000000000000000000000000000000000000000000000000000000000000000000000000000000000800000000000000000000000000000000000000000000000000000000000000000008000800000000000000000004000000000000000000000000020000000000000000000800000040000000000000000010000000000000000000000000000000000000000000000000000000000000080000000000000000000000000000000000000000000000000000000000000000000000000000000002000000000000000000000000000000000000000000000000000020000000000000000000000000000000000000000000000000100000000000000000",
      "type": "0x2",
      "transactionHash": "0x5e45220d005cecfd24a91956e39de2dd1ced699dc9b17ef84395feaa27aa9564",
      "transactionIndex": "0x45",
      "blockHash": "0x57ff2768fa23f336217fff8a73a9b235c6da937c3e53c84306345bc627bcacc6",
      "blockNumber": "0x94b107",
      "gasUsed": "0x1147e",
      "effectiveGasPrice": "0xfe957",
      "from": "0x0b332c99fd6511ca9faf9654dfcf18c575941094",
      "to": "0xdc1d17004a2a724d5aa9f6b428c56814abd156d9",
      "contractAddress": null
    }
  ],
  "libraries": [],
  "pending": [],
  "returns": {},
  "timestamp": 1764578977,
  "chain": 11155111,
  "commit": null
}