{
  "transactions": [
    {
      "hash": "0x0697700ff36e40c9ba4da0214f99f00353a1feb25a370cdefc0ca36d16ec029f",
      "transactionType": "CALL",
      "contractName": "RegistryModuleOwnerCustom",
      "contractAddress": "0x8a55c61227f26a3e2f217842ecf20b52007baabe",
      "function": "registerAdminViaGetCCIPAdmin(address)",
      "arguments": [
        "0x102Acb6408E4a568D9dD4113BB95a5c0b76d08AC"
      ],
      "transaction": {
        "from": "0x0aacd99bc8378327df99543036a89c0ea5793e66",
        "to": "0x8a55c61227f26a3e2f217842ecf20b52007baabe",
        "gas": "0x25414",
        "value": "0x0",
        "input": "0xff12c354000000000000000000000000102acb6408e4a568d9dd4113bb95a5c0b76d08ac",
        "nonce": "0x4",
        "chainId": "0x14a34"
      },
      "additionalContracts": [],
      "isFixedGasLimit": false
    }
  ],
  "receipts": [
    {
      "status": "0x1",
      "cumulativeGasUsed": "0x206d20",
      "logs": [
        {
          "address": "0x736d0bbb318c1b27ff686cd19804094e66250e17",
          "topics": [
            "0xc54c3051ff16e63bb9203214432372aca006c589e3653619b577a3265675b716",
            "0x000000000000000000000000102acb6408e4a568d9dd4113bb95a5c0b76d08ac",
            "0x0000000000000000000000000000000000000000000000000000000000000000",
            "0x0000000000000000000000000aacd99bc8378327df99543036a89c0ea5793e66"
          ],
          "data": "0x",
          "blockHash": "0x0000000000000000000000000000000000000000000000000000000000000000",
          "blockNumber": "0x26e0feb",
          "blockTimestamp": "0x69ef7eb6",
          "transactionHash": "0x0697700ff36e40c9ba4da0214f99f00353a1feb25a370cdefc0ca36d16ec029f",
          "transactionIndex": "0x6",
          "logIndex": "0x3a",
          "removed": false
        },
        {
          "address": "0x8a55c61227f26a3e2f217842ecf20b52007baabe",
          "topics": [
            "0x09590fb70af4b833346363965e043a9339e8c7d378b8a2b903c75c277faec4f9",
            "0x000000000000000000000000102acb6408e4a568d9dd4113bb95a5c0b76d08ac",
            "0x0000000000000000000000000aacd99bc8378327df99543036a89c0ea5793e66"
          ],
          "data": "0x",
          "blockHash": "0x0000000000000000000000000000000000000000000000000000000000000000",
          "blockNumber": "0x26e0feb",
          "blockTimestamp": "0x69ef7eb6",
          "transactionHash": "0x0697700ff36e40c9ba4da0214f99f00353a1feb25a370cdefc0ca36d16ec029f",
          "transactionIndex": "0x6",
          "logIndex": "0x3b",
          "removed": false
        }
      ],
      "logsBloom": "0x00000000000000000000000000000000000000000000000000000000000000000000000000080000000000000005000000000000000000000000000400000000000000000040000000000040000000000000000000000000000000000000000000000000020000001000800000000800000000000000000000000000000000000000000000000000000000000080000000000000000000000000000000000000000000000000000000000000000000000000020000000000000000000000000009000000400000000000000000000000000000000000020000000000000120000000001000000000000000000000000000000000000000000800020000000000",
      "type": "0x2",
      "transactionHash": "0x0697700ff36e40c9ba4da0214f99f00353a1feb25a370cdefc0ca36d16ec029f",
      "transactionIndex": "0x6",
      "blockHash": "0x0000000000000000000000000000000000000000000000000000000000000000",
      "blockNumber": "0x26e0feb",
      "gasUsed": "0x1af8e",
      "effectiveGasPrice": "0x5b8d80",
      "blobGasUsed": "0x39d0",
      "from": "0x0aacd99bc8378327df99543036a89c0ea5793e66",
      "to": "0x8a55c61227f26a3e2f217842ecf20b52007baabe",
      "contractAddress": null,
      "daFootprintGasScalar": "0x94",
      "l1BaseFeeScalar": "0x44d",
      "l1BlobBaseFee": "0x97f664",
      "l1BlobBaseFeeScalar": "0xa118b",
      "l1Fee": "0x123f9ecbf",
      "l1GasPrice": "0x84a81ba",
      "l1GasUsed": "0x640"
    }
  ],
  "libraries": [],
  "pending": [],
  "returns": {},
  "timestamp": 1777303220594,
  "chain": 84532,
  "commit": "495b887"
}