{
  "transactions": [
    {
      "hash": "0xff92163435b66571438e0bc408f7a7b75471867284ec3cbf56d2f548bd422b1d",
      "transactionType": "CALL",
      "contractName": "RegistryModuleOwnerCustom",
      "contractAddress": "0x62e731218d0d47305aba2be3751e7ee9e5520790",
      "function": "registerAdminViaGetCCIPAdmin(address)",
      "arguments": [
        "0x1e92b3D42520fc9755730a80537b55Bb8731A295"
      ],
      "transaction": {
        "from": "0x0aacd99bc8378327df99543036a89c0ea5793e66",
        "to": "0x62e731218d0d47305aba2be3751e7ee9e5520790",
        "gas": "0x252b6",
        "value": "0x0",
        "input": "0xff12c3540000000000000000000000001e92b3d42520fc9755730a80537b55bb8731a295",
        "nonce": "0x86",
        "chainId": "0xaa36a7"
      },
      "additionalContracts": [],
      "isFixedGasLimit": false
    }
  ],
  "receipts": [
    {
      "status": "0x1",
      "cumulativeGasUsed": "0xb93e31",
      "logs": [
        {
          "address": "0x95f29fee11c5c55d26cccf1db6772de953b37b82",
          "topics": [
            "0xc54c3051ff16e63bb9203214432372aca006c589e3653619b577a3265675b716",
            "0x0000000000000000000000001e92b3d42520fc9755730a80537b55bb8731a295",
            "0x0000000000000000000000000000000000000000000000000000000000000000",
            "0x0000000000000000000000000aacd99bc8378327df99543036a89c0ea5793e66"
          ],
          "data": "0x",
          "blockHash": "0x266686e8438c1020777f5f65193b0bf4718672d25a3d6c58f2dde3dd21c69dba",
          "blockNumber": "0xa3ec93",
          "blockTimestamp": "0x69ef6868",
          "transactionHash": "0xff92163435b66571438e0bc408f7a7b75471867284ec3cbf56d2f548bd422b1d",
          "transactionIndex": "0x5f",
          "logIndex": "0x1a1",
          "removed": false
        },
        {
          "address": "0x62e731218d0d47305aba2be3751e7ee9e5520790",
          "topics": [
            "0x09590fb70af4b833346363965e043a9339e8c7d378b8a2b903c75c277faec4f9",
            "0x0000000000000000000000001e92b3d42520fc9755730a80537b55bb8731a295",
            "0x0000000000000000000000000aacd99bc8378327df99543036a89c0ea5793e66"
          ],
          "data": "0x",
          "blockHash": "0x266686e8438c1020777f5f65193b0bf4718672d25a3d6c58f2dde3dd21c69dba",
          "blockNumber": "0xa3ec93",
          "blockTimestamp": "0x69ef6868",
          "transactionHash": "0xff92163435b66571438e0bc408f7a7b75471867284ec3cbf56d2f548bd422b1d",
          "transactionIndex": "0x5f",
          "logIndex": "0x1a2",
          "removed": false
        }
      ],
      "logsBloom": "0x00000000000000000000000000000000002000000000000000000000000000000000000000000000008000000001000000000000000000000000000400000000000000000040000000000040000000000000000000008002000000000000000000000000020000001000000000000800000000000000000000000000000000000000800000000000000000000000000000000000000000000000000000000000000000000000000000000000000000000000000000000008000000000000000008000000400000000000000000000000000000000000000000000000000120000000000020000000000001000000000000000000000000000800020000000000",
      "type": "0x2",
      "transactionHash": "0xff92163435b66571438e0bc408f7a7b75471867284ec3cbf56d2f548bd422b1d",
      "transactionIndex": "0x5f",
      "blockHash": "0x266686e8438c1020777f5f65193b0bf4718672d25a3d6c58f2dde3dd21c69dba",
      "blockNumber": "0xa3ec93",
      "gasUsed": "0x1ae90",
      "effectiveGasPrice": "0x10cc3f45",
      "from": "0x0aacd99bc8378327df99543036a89c0ea5793e66",
      "to": "0x62e731218d0d47305aba2be3751e7ee9e5520790",
      "contractAddress": null
    }
  ],
  "libraries": [],
  "pending": [],
  "returns": {},
  "timestamp": 1777297513507,
  "chain": 11155111,
  "commit": "495b887"
}