{
  "transactions": [
    {
      "hash": "0x110555a5331fac7436770048bea2831b1812a63ef320562ed881cd344f949785",
      "transactionType": "CALL",
      "contractName": null,
      "contractAddress": "0x8a88b830915aea048ebf8340aca47e21b8e342b4",
      "function": "approve(address,uint256)",
      "arguments": [
        "0x6bc3531769F05eA1b99A92c8fb5EB557c3715801",
        "115792089237316195423570985008687907853269984665640564039457584007913129639935"
      ],
      "transaction": {
        "from": "0x0b332c99fd6511ca9faf9654dfcf18c575941094",
        "to": "0x8a88b830915aea048ebf8340aca47e21b8e342b4",
        "gas": "0x10cf7",
        "value": "0x0",
        "input": "0x095ea7b30000000000000000000000006bc3531769f05ea1b99a92c8fb5eb557c3715801ffffffffffffffffffffffffffffffffffffffffffffffffffffffffffffffff",
        "nonce": "0x7c",
        "chainId": "0xaa36a7"
      },
      "additionalContracts": [],
      "isFixedGasLimit": false
    },
    {
      "hash": "0xca786dcf5702ee5de3782a2a50b6f27d92cbab9254776a1f2e5ca80cd326896d",
      "transactionType": "CALL",
      "contractName": null,
      "contractAddress": "0x2b79645f2be73db5c001397ba261489dd5d25294",
      "function": "approve(address,uint256)",
      "arguments": [
        "0x6bc3531769F05eA1b99A92c8fb5EB557c3715801",
        "115792089237316195423570985008687907853269984665640564039457584007913129639935"
      ],
      "transaction": {
        "from": "0x0b332c99fd6511ca9faf9654dfcf18c575941094",
        "to": "0x2b79645f2be73db5c001397ba261489dd5d25294",
        "gas": "0x10cf7",
        "value": "0x0",
        "input": "0x095ea7b30000000000000000000000006bc3531769f05ea1b99a92c8fb5eb557c3715801ffffffffffffffffffffffffffffffffffffffffffffffffffffffffffffffff",
        "nonce": "0x7d",
        "chainId": "0xaa36a7"
      },
      "additionalContracts": [],
      "isFixedGasLimit": false
    },
    {
      "hash": "0xed0f9ef0eac8ae384d2be9dca5f0f8f8fac924abba507197bd5b6d8da2c8c9fb",
      "transactionType": "CALL",
      "contractName": null,
      "contractAddress": "0x6bc3531769f05ea1b99a92c8fb5eb557c3715801",
      "function": "addLiquidity(uint256,uint256)",
      "arguments": [
        "100000000000000000000",
        "100000000000000000000"
      ],
      "transaction": {
        "from": "0x0b332c99fd6511ca9faf9654dfcf18c575941094",
        "to": "0x6bc3531769f05ea1b99a92c8fb5eb557c3715801",
        "gas": "0x59cbb",
        "value": "0x0",
        "input": "0x9cd441da0000000000000000000000000000000000000000000000056bc75e2d631000000000000000000000000000000000000000000000000000056bc75e2d63100000",
        "nonce": "0x7e",
        "chainId": "0xaa36a7"
      },
      "additionalContracts": [],
      "isFixedGasLimit": false
    },
    {
      "hash": "0x4de08a2a5b91ad9a8b4ffa1e3b22a67223f2bd2f553387ebfe7c09c6daf34dcd",
      "transactionType": "CALL",
      "contractName": null,
      "contractAddress": "0x6bc3531769f05ea1b99a92c8fb5eb557c3715801",
      "function": "approve(address,uint256)",
      "arguments": [
        "0x1AD9AF9eFD7506666200b0748CE9761ADF981417",
        "115792089237316195423570985008687907853269984665640564039457584007913129639935"
      ],
      "transaction": {
        "from": "0x0b332c99fd6511ca9faf9654dfcf18c575941094",
        "to": "0x6bc3531769f05ea1b99a92c8fb5eb557c3715801",
        "gas": "0x10e10",
        "value": "0x0",
        "input": "0x095ea7b30000000000000000000000001ad9af9efd7506666200b0748ce9761adf981417ffffffffffffffffffffffffffffffffffffffffffffffffffffffffffffffff",
        "nonce": "0x7f",
        "chainId": "0xaa36a7"
      },
      "additionalContracts": [],
      "isFixedGasLimit": false
    },
    {
      "hash": "0x0c903d97918b1f6ea132661acf630269ef1a4a9d86a950bcdd7c3b33f14b69da",
      "transactionType": "CALL",
      "contractName": null,
      "contractAddress": "0x1ad9af9efd7506666200b0748ce9761adf981417",
      "function": "stake(uint256)",
      "arguments": [
        "10000000000000000000"
      ],
      "transaction": {
        "from": "0x0b332c99fd6511ca9faf9654dfcf18c575941094",
        "to": "0x1ad9af9efd7506666200b0748ce9761adf981417",
        "gas": "0x2b50e",
        "value": "0x0",
        "input": "0xa694fc3a0000000000000000000000000000000000000000000000008ac7230489e80000",
        "nonce": "0x80",
        "chainId": "0xaa36a7"
      },
      "additionalContracts": [],
      "isFixedGasLimit": false
    }
  ],
  "receipts": [
    {
      "status": "0x1",
      "cumulativeGasUsed": "0xcb3236",
      "logs": [
        {
          "address": "0x8a88b830915aea048ebf8340aca47e21b8e342b4",
          "topics": [
            "0x8c5be1e5ebec7d5bd14f71427d1e84f3dd0314c0f7b2291e5b200ac8c7c3b925",
            "0x0000000000000000000000000b332c99fd6511ca9faf9654dfcf18c575941094",
            "0x0000000000000000000000006bc3531769f05ea1b99a92c8fb5eb557c3715801"
          ],
          "data": "0xffffffffffffffffffffffffffffffffffffffffffffffffffffffffffffffff",
          "blockHash": "0x4b47b41e91b8c8e388cb5ad10f86742e7c95b6b961760981df15886b2bfcc6fd",
          "blockNumber": "0x94aa69",
          "blockTimestamp": "0x692d072c",
          "transactionHash": "0x110555a5331fac7436770048bea2831b1812a63ef320562ed881cd344f949785",
          "transactionIndex": "0x46",
          "logIndex": "0x161",
          "removed": false
        }
      ],
      "logsBloom": "0x00000000000000000004000000000000000000000000000000000000000000000000000000000000000000000000000000000000000000000000000000200000000000000000000000000000000000108000000000000004000000000000000000000000000000000000004000000000000040000000000000000000000000000000000000000000000000000000000000000000000000000000080000000000020000000000100000000000000000000000000000000000000000000000000000000000000000000000000000000000000000000000000000000000000000000010000000002000000000000000000000000000000000000000000000000000",
      "type": "0x2",
      "transactionHash": "0x110555a5331fac7436770048bea2831b1812a63ef320562ed881cd344f949785",
      "transactionIndex": "0x46",
      "blockHash": "0x4b47b41e91b8c8e388cb5ad10f86742e7c95b6b961760981df15886b2bfcc6fd",
      "blockNumber": "0x94aa69",
      "gasUsed": "0xb7e9",
      "effectiveGasPrice": "0xf4249",
      "from": "0x0b332c99fd6511ca9faf9654dfcf18c575941094",
      "to": "0x8a88b830915aea048ebf8340aca47e21b8e342b4",
      "contractAddress": null
    },
    {
      "status": "0x1",
      "cumulativeGasUsed": "0xcbea1f",
      "logs": [
        {
          "address": "0x2b79645f2be73db5c001397ba261489dd5d25294",
          "topics": [
            "0x8c5be1e5ebec7d5bd14f71427d1e84f3dd0314c0f7b2291e5b200ac8c7c3b925",
            "0x0000000000000000000000000b332c99fd6511ca9faf9654dfcf18c575941094",
            "0x0000000000000000000000006bc3531769f05ea1b99a92c8fb5eb557c3715801"
          ],
          "data": "0xffffffffffffffffffffffffffffffffffffffffffffffffffffffffffffffff",
          "blockHash": "0x4b47b41e91b8c8e388cb5ad10f86742e7c95b6b961760981df15886b2bfcc6fd",
          "blockNumber": "0x94aa69",
          "blockTimestamp": "0x692d072c",
          "transactionHash": "0xca786dcf5702ee5de3782a2a50b6f27d92cbab9254776a1f2e5ca80cd326896d",
          "transactionIndex": "0x47",
          "logIndex": "0x162",
          "removed": false
        }
      ],
      "logsBloom": "0x0000000000000000000400000000000000000000000000000000000000000000000000000000000000000000000000000000000000000000000200000020020000000000000000000000000000000010000000000000000c000000000000000000000000000000000000004000000000000040000000000000000000000000000000000000000000000000000000000000000000000000000000080000000000020000000000000000000000000000000000000000000000000000000000000000000000000000000000000000000000000000000000000000000000000000000010000000000000000000000000000000000000000000000000000000000000",
      "type": "0x2",
      "transactionHash": "0xca786dcf5702ee5de3782a2a50b6f27d92cbab9254776a1f2e5ca80cd326896d",
      "transactionIndex": "0x47",
      "blockHash": "0x4b47b41e91b8c8e388cb5ad10f86742e7c95b6b961760981df15886b2bfcc6fd",
      "blockNumber": "0x94aa69",
      "gasUsed": "0xb7e9",
      "effectiveGasPrice": "0xf4249",
      "from": "0x0b332c99fd6511ca9faf9654dfcf18c575941094",
      "to": "0x2b79645f2be73db5c001397ba261489dd5d25294",
      "contractAddress": null
    },
    {
      "status": "0x1",
      "cumulativeGasUsed": "0xcffa4b",
      "logs": [
        {
          "address": "0x8a88b830915aea048ebf8340aca47e21b8e342b4",
          "topics": [
            "0xddf252ad1be2c89b69c2b068fc378daa952ba7f163c4a11628f55a4df523b3ef",
            "0x0000000000000000000000000b332c99fd6511ca9faf9654dfcf18c575941094",
            "0x0000000000000000000000006bc3531769f05ea1b99a92c8fb5eb557c3715801"
          ],
          "data": "0x0000000000000000000000000000000000000000000000056bc75e2d63100000",
          "blockHash": "0x4b47b41e91b8c8e388cb5ad10f86742e7c95b6b961760981df15886b2bfcc6fd",
          "blockNumber": "0x94aa69",
          "blockTimestamp": "0x692d072c",
          "transactionHash": "0xed0f9ef0eac8ae384d2be9dca5f0f8f8fac924abba507197bd5b6d8da2c8c9fb",
          "transactionIndex": "0x48",
          "logIndex": "0x163",
          "removed": false
        },
        {
          "address": "0x2b79645f2be73db5c001397ba261489dd5d25294",
          "topics": [
            "0xddf252ad1be2c89b69c2b068fc378daa952ba7f163c4a11628f55a4df523b3ef",
            "0x0000000000000000000000000b332c99fd6511ca9faf9654dfcf18c575941094",
            "0x0000000000000000000000006bc3531769f05ea1b99a92c8fb5eb557c3715801"
          ],
          "data": "0x0000000000000000000000000000000000000000000000056bc75e2d63100000",
          "blockHash": "0x4b47b41e91b8c8e388cb5ad10f86742e7c95b6b961760981df15886b2bfcc6fd",
          "blockNumber": "0x94aa69",
          "blockTimestamp": "0x692d072c",
          "transactionHash": "0xed0f9ef0eac8ae384d2be9dca5f0f8f8fac924abba507197bd5b6d8da2c8c9fb",
          "transactionIndex": "0x48",
          "logIndex": "0x164",
          "removed": false
        },
        {
          "address": "0x6bc3531769f05ea1b99a92c8fb5eb557c3715801",
          "topics": [
            "0xddf252ad1be2c89b69c2b068fc378daa952ba7f163c4a11628f55a4df523b3ef",
            "0x0000000000000000000000000000000000000000000000000000000000000000",
            "0x0000000000000000000000006bc3531769f05ea1b99a92c8fb5eb557c3715801"
          ],
          "data": "0x00000000000000000000000000000000000000000000000000000000000003e8",
          "blockHash": "0x4b47b41e91b8c8e388cb5ad10f86742e7c95b6b961760981df15886b2bfcc6fd",
          "blockNumber": "0x94aa69",
          "blockTimestamp": "0x692d072c",
          "transactionHash": "0xed0f9ef0eac8ae384d2be9dca5f0f8f8fac924abba507197bd5b6d8da2c8c9fb",
          "transactionIndex": "0x48",
          "logIndex": "0x165",
          "removed": false
        },
        {
          "address": "0x6bc3531769f05ea1b99a92c8fb5eb557c3715801",
          "topics": [
            "0xddf252ad1be2c89b69c2b068fc378daa952ba7f163c4a11628f55a4df523b3ef",
            "0x0000000000000000000000000000000000000000000000000000000000000000",
            "0x0000000000000000000000000b332c99fd6511ca9faf9654dfcf18c575941094"
          ],
          "data": "0x0000000000000000000000000000000000000000000000056bc75e2d630ffc18",
          "blockHash": "0x4b47b41e91b8c8e388cb5ad10f86742e7c95b6b961760981df15886b2bfcc6fd",
          "blockNumber": "0x94aa69",
          "blockTimestamp": "0x692d072c",
          "transactionHash": "0xed0f9ef0eac8ae384d2be9dca5f0f8f8fac924abba507197bd5b6d8da2c8c9fb",
          "transactionIndex": "0x48",
          "logIndex": "0x166",
          "removed": false
        },
        {
          "address": "0x6bc3531769f05ea1b99a92c8fb5eb557c3715801",
          "topics": [
            "0x64b83944e79c3ce8d4c297411de637c3e102d064677aac0c163976ebdcd6f50e",
            "0x0000000000000000000000000b332c99fd6511ca9faf9654dfcf18c575941094"
          ],
          "data": "0x0000000000000000000000000000000000000000000000056bc75e2d631000000000000000000000000000000000000000000000000000056bc75e2d631000000000000000000000000000000000000000000000000000056bc75e2d630ffc18",
          "blockHash": "0x4b47b41e91b8c8e388cb5ad10f86742e7c95b6b961760981df15886b2bfcc6fd",
          "blockNumber": "0x94aa69",
          "blockTimestamp": "0x692d072c",
          "transactionHash": "0xed0f9ef0eac8ae384d2be9dca5f0f8f8fac924abba507197bd5b6d8da2c8c9fb",
          "transactionIndex": "0x48",
          "logIndex": "0x167",
          "removed": false
        }
      ],
      "logsBloom": "0x0000000000000000000400000000000000000000200000000000000000000000000000000000000000000000000000000000000000000000000200000000020000000100000000000000000880000010800000000000000c000000000000000000000000020000000000004000000800000040000000000000000010000000000001000000000000000000000000000000000000000000000000080000000000000000000000100000000000000000000000000000000000000000000000000000000002000000000000000000000000000000000000000000000000020020000020000000002000000000000000000000000000000000000000000000000000",
      "type": "0x2",
      "transactionHash": "0xed0f9ef0eac8ae384d2be9dca5f0f8f8fac924abba507197bd5b6d8da2c8c9fb",
      "transactionIndex": "0x48",
      "blockHash": "0x4b47b41e91b8c8e388cb5ad10f86742e7c95b6b961760981df15886b2bfcc6fd",
      "blockNumber": "0x94aa69",
      "gasUsed": "0x4102c",
      "effectiveGasPrice": "0xf4249",
      "from": "0x0b332c99fd6511ca9faf9654dfcf18c575941094",
      "to": "0x6bc3531769f05ea1b99a92c8fb5eb557c3715801",
      "contractAddress": null
    },
    {
      "status": "0x1",
      "cumulativeGasUsed": "0xd0b2f4",
      "logs": [
        {
          "address": "0x6bc3531769f05ea1b99a92c8fb5eb557c3715801",
          "topics": [
            "0x8c5be1e5ebec7d5bd14f71427d1e84f3dd0314c0f7b2291e5b200ac8c7c3b925",
            "0x0000000000000000000000000b332c99fd6511ca9faf9654dfcf18c575941094",
            "0x0000000000000000000000001ad9af9efd7506666200b0748ce9761adf981417"
          ],
          "data": "0xffffffffffffffffffffffffffffffffffffffffffffffffffffffffffffffff",
          "blockHash": "0x4b47b41e91b8c8e388cb5ad10f86742e7c95b6b961760981df15886b2bfcc6fd",
          "blockNumber": "0x94aa69",
          "blockTimestamp": "0x692d072c",
          "transactionHash": "0x4de08a2a5b91ad9a8b4ffa1e3b22a67223f2bd2f553387ebfe7c09c6daf34dcd",
          "transactionIndex": "0x49",
          "logIndex": "0x168",
          "removed": false
        }
      ],
      "logsBloom": "0x00000000000000000000000000000000000000002000000000000000000000000000000000000000000000000000000000000000000000000000000000200000000000000000000000000000000200000000000000000004000000000000000000100000000000000000000000000000000040000000000000000000000000000001000000000000000000000000000000000000000000000000080000000000020000000000000000000000000000000000000000000000000000000000000000000000000000000000000000000000000000000000000100000000000000000030000000000000000000000000000000000000000000000000000000000000",
      "type": "0x2",
      "transactionHash": "0x4de08a2a5b91ad9a8b4ffa1e3b22a67223f2bd2f553387ebfe7c09c6daf34dcd",
      "transactionIndex": "0x49",
      "blockHash": "0x4b47b41e91b8c8e388cb5ad10f86742e7c95b6b961760981df15886b2bfcc6fd",
      "blockNumber": "0x94aa69",
      "gasUsed": "0xb8a9",
      "effectiveGasPrice": "0xf4249",
      "from": "0x0b332c99fd6511ca9faf9654dfcf18c575941094",
      "to": "0x6bc3531769f05ea1b99a92c8fb5eb557c3715801",
      "contractAddress": null
    },
    {
      "status": "0x1",
      "cumulativeGasUsed": "0xd28cd7",
      "logs": [
        {
          "address": "0x6bc3531769f05ea1b99a92c8fb5eb557c3715801",
          "topics": [
            "0xddf252ad1be2c89b69c2b068fc378daa952ba7f163c4a11628f55a4df523b3ef",
            "0x0000000000000000000000000b332c99fd6511ca9faf9654dfcf18c575941094",
            "0x0000000000000000000000001ad9af9efd7506666200b0748ce9761adf981417"
          ],
          "data": "0x0000000000000000000000000000000000000000000000008ac7230489e80000",
          "blockHash": "0x4b47b41e91b8c8e388cb5ad10f86742e7c95b6b961760981df15886b2bfcc6fd",
          "blockNumber": "0x94aa69",
          "blockTimestamp": "0x692d072c",
          "transactionHash": "0x0c903d97918b1f6ea132661acf630269ef1a4a9d86a950bcdd7c3b33f14b69da",
          "transactionIndex": "0x4a",
          "logIndex": "0x169",
          "removed": false
        },
        {
          "address": "0x1ad9af9efd7506666200b0748ce9761adf981417",
          "topics": [
            "0x9e71bc8eea02a63969f509818f2dafb9254532904319f9dbda79b67bd34a5f3d",
            "0x0000000000000000000000000b332c99fd6511ca9faf9654dfcf18c575941094"
          ],
          "data": "0x0000000000000000000000000000000000000000000000008ac7230489e80000",
          "blockHash": "0x4b47b41e91b8c8e388cb5ad10f86742e7c95b6b961760981df15886b2bfcc6fd",
          "blockNumber": "0x94aa69",
          "blockTimestamp": "0x692d072c",
          "transactionHash": "0x0c903d97918b1f6ea132661acf630269ef1a4a9d86a950bcdd7c3b33f14b69da",
          "transactionIndex": "0x4a",
          "logIndex": "0x16a",
          "removed": false
        }
      ],
      "logsBloom": "0x00000000000000000000000000000000000000002800000000000000000000000000000000000000000000000000000000000000004000000000000000000000000000000000000000000008000200000000000000000004000000000000000040100000000000000008000000000000000040000000000000000010000000000001000000000000000000000000000000000100000000000000080000000000000000000000000000000000000000000000000000000000000000000000000000000002000000000000000000000000000000000000000100000000000000000024000000000000000000000000000000000000000000000000000000000000",
      "type": "0x2",
      "transactionHash": "0x0c903d97918b1f6ea132661acf630269ef1a4a9d86a950bcdd7c3b33f14b69da",
      "transactionIndex": "0x4a",
      "blockHash": "0x4b47b41e91b8c8e388cb5ad10f86742e7c95b6b961760981df15886b2bfcc6fd",
      "blockNumber": "0x94aa69",
      "gasUsed": "0x1d9e3",
      "effectiveGasPrice": "0xf4249",
      "from": "0x0b332c99fd6511ca9faf9654dfcf18c575941094",
      "to": "0x1ad9af9efd7506666200b0748ce9761adf981417",
      "contractAddress": null
    }
  ],
  "libraries": [],
  "pending": [],
  "returns": {},
  "timestamp": 1764558637,
  "chain": 11155111,
  "commit": null
}