{
  "transactions": [
    {
      "hash": "0x74b3a6ff88c2a792f7c601384c46c666f47cdcaf05cefbdee4217ebd61ae8dac",
      "transactionType": "CALL",
      "contractName": "BurnMintTokenPool",
      "contractAddress": "0x37e2d4a9469d08eb8d5e910d478cc239ee75aecf",
      "function": "applyChainUpdates(uint64[],(uint64,bytes[],bytes,(bool,uint128,uint128),(bool,uint128,uint128))[])",
      "arguments": [
        "[10344971235874465080]",
        "[(10344971235874465080, [0x000000000000000000000000e73c39a552b1b757d58cf0d3ef028b61f7503cb1], 0x000000000000000000000000102acb6408e4a568d9dd4113bb95a5c0b76d08ac, (false, 0, 0), (false, 0, 0))]"
      ],
      "transaction": {
        "from": "0x0aacd99bc8378327df99543036a89c0ea5793e66",
        "to": "0x37e2d4a9469d08eb8d5e910d478cc239ee75aecf",
        "gas": "0x32126",
        "value": "0x0",
        "input": "0xe8a1da170000000000000000000000000000000000000000000000000000000000000040000000000000000000000000000000000000000000000000000000000000008000000000000000000000000000000000000000000000000000000000000000010000000000000000000000000000000000000000000000008f90b8876dee6538000000000000000000000000000000000000000000000000000000000000000100000000000000000000000000000000000000000000000000000000000000200000000000000000000000000000000000000000000000008f90b8876dee6538000000000000000000000000000000000000000000000000000000000000012000000000000000000000000000000000000000000000000000000000000001a0000000000000000000000000000000000000000000000000000000000000000000000000000000000000000000000000000000000000000000000000000000000000000000000000000000000000000000000000000000000000000000000000000000000000000000000000000000000000000000000000000000000000000000000000000000000000000000000000000000000000000000000000000000000000000000000000000000000000000000000000000000000000000000000000000000000000000000000000000000000000000000000000000000000000000100000000000000000000000000000000000000000000000000000000000000200000000000000000000000000000000000000000000000000000000000000020000000000000000000000000e73c39a552b1b757d58cf0d3ef028b61f7503cb10000000000000000000000000000000000000000000000000000000000000020000000000000000000000000102acb6408e4a568d9dd4113bb95a5c0b76d08ac",
        "nonce": "0x8d",
        "chainId": "0xaa36a7"
      },
      "additionalContracts": [],
      "isFixedGasLimit": false
    }
  ],
  "receipts": [
    {
      "status": "0x1",
      "cumulativeGasUsed": "0x102414c",
      "logs": [
        {
          "address": "0x37e2d4a9469d08eb8d5e910d478cc239ee75aecf",
          "topics": [
            "0x5204aec90a3c794d8e90fded8b46ae9c7c552803e7e832e0c1d358396d859916"
          ],
          "data": "0x0000000000000000000000000000000000000000000000008f90b8876dee6538",
          "blockHash": "0x9d460101af0a1ed46958a54dd97201e6917fb320784778f5ef2ba701c9ab673c",
          "blockNumber": "0xa40649",
          "blockTimestamp": "0x69f0bc34",
          "transactionHash": "0x74b3a6ff88c2a792f7c601384c46c666f47cdcaf05cefbdee4217ebd61ae8dac",
          "transactionIndex": "0x77",
          "logIndex": "0x26b",
          "removed": false
        },
        {
          "address": "0x37e2d4a9469d08eb8d5e910d478cc239ee75aecf",
          "topics": [
            "0x7d628c9a1796743d365ab521a8b2a4686e419b3269919dc9145ea2ce853b54ea",
            "0x0000000000000000000000000000000000000000000000008f90b8876dee6538"
          ],
          "data": "0x00000000000000000000000000000000000000000000000000000000000000200000000000000000000000000000000000000000000000000000000000000020000000000000000000000000e73c39a552b1b757d58cf0d3ef028b61f7503cb1",
          "blockHash": "0x9d460101af0a1ed46958a54dd97201e6917fb320784778f5ef2ba701c9ab673c",
          "blockNumber": "0xa40649",
          "blockTimestamp": "0x69f0bc34",
          "transactionHash": "0x74b3a6ff88c2a792f7c601384c46c666f47cdcaf05cefbdee4217ebd61ae8dac",
          "transactionIndex": "0x77",
          "logIndex": "0x26c",
          "removed": false
        },
        {
          "address": "0x37e2d4a9469d08eb8d5e910d478cc239ee75aecf",
          "topics": [
            "0x8d340f17e19058004c20453540862a9c62778504476f6756755cb33bcd6c38c2"
          ],
          "data": "0x0000000000000000000000000000000000000000000000008f90b8876dee653800000000000000000000000000000000000000000000000000000000000001000000000000000000000000000000000000000000000000000000000000000000000000000000000000000000000000000000000000000000000000000000000000000000000000000000000000000000000000000000000000000000000000000000000000000000000000000000000000000000000000000000000000000000000000000000000000000000000000000000000000000000000000000000000000000000000000000000000000000000000000000000000000000000000000000000000000000000000000000000000000000000000000000000000000000020000000000000000000000000102acb6408e4a568d9dd4113bb95a5c0b76d08ac",
          "blockHash": "0x9d460101af0a1ed46958a54dd97201e6917fb320784778f5ef2ba701c9ab673c",
          "blockNumber": "0xa40649",
          "blockTimestamp": "0x69f0bc34",
          "transactionHash": "0x74b3a6ff88c2a792f7c601384c46c666f47cdcaf05cefbdee4217ebd61ae8dac",
          "transactionIndex": "0x77",
          "logIndex": "0x26d",
          "removed": false
        }
      ],
      "logsBloom": "0x00000000000000400000000000000000000000000000000000000000000000000000000000000000000000000000000000000000000000000004000000000004000000000000000000000000000000000000000400000000000000000000200000000000000000000000000000000000000000000000000000000000000000404000000000000000000000000000000000010000000000000000000000000000000200000000000000000000000000000000000000000000000000000000080000000000040000000000000000000000000000000040000200000000000000000000000000000000000000000000000000000000008000000100000000000000",
      "type": "0x2",
      "transactionHash": "0x74b3a6ff88c2a792f7c601384c46c666f47cdcaf05cefbdee4217ebd61ae8dac",
      "transactionIndex": "0x77",
      "blockHash": "0x9d460101af0a1ed46958a54dd97201e6917fb320784778f5ef2ba701c9ab673c",
      "blockNumber": "0xa40649",
      "gasUsed": "0x24405",
      "effectiveGasPrice": "0x1db961",
      "from": "0x0aacd99bc8378327df99543036a89c0ea5793e66",
      "to": "0x37e2d4a9469d08eb8d5e910d478cc239ee75aecf",
      "contractAddress": null
    }
  ],
  "libraries": [],
  "pending": [],
  "returns": {},
  "timestamp": 1777384500787,
  "chain": 11155111,
  "commit": "495b887"
}