{
  "transactions": [
    {
      "hash": "0xc3df1c3628b2fe00eaad8b4437aa3d71335abada03207f32a36f9c01ef0e5961",
      "transactionType": "CALL",
      "contractName": null,
      "contractAddress": "0x37e2d4a9469d08eb8d5e910d478cc239ee75aecf",
      "function": "applyChainUpdates(uint64[],(uint64,bytes[],bytes,(bool,uint128,uint128),(bool,uint128,uint128))[])",
      "arguments": [
        "[]",
        "[(10344971235874465080, [0x00000000000000000000000027bcd1de1bdd9a40814e2d4bdc500c52c76938e7], 0x000000000000000000000000431306040c181e768c4301a7bfd4fc6a770e833f, (false, 0, 0), (false, 0, 0))]"
      ],
      "transaction": {
        "from": "0x0aacd99bc8378327df99543036a89c0ea5793e66",
        "to": "0x37e2d4a9469d08eb8d5e910d478cc239ee75aecf",
        "gas": "0x686c4",
        "value": "0x0",
        "input": "0xe8a1da17000000000000000000000000000000000000000000000000000000000000004000000000000000000000000000000000000000000000000000000000000000600000000000000000000000000000000000000000000000000000000000000000000000000000000000000000000000000000000000000000000000000000000100000000000000000000000000000000000000000000000000000000000000200000000000000000000000000000000000000000000000008f90b8876dee6538000000000000000000000000000000000000000000000000000000000000012000000000000000000000000000000000000000000000000000000000000001a000000000000000000000000000000000000000000000000000000000000000000000000000000000000000000000000000000000000000000000000000000000000000000000000000000000000000000000000000000000000000000000000000000000000000000000000000000000000000000000000000000000000000000000000000000000000000000000000000000000000000000000000000000000000000000000000000000000000000000000000000000000000000000000000000000000000000000000000000000000000000000000000000000000000000010000000000000000000000000000000000000000000000000000000000000020000000000000000000000000000000000000000000000000000000000000002000000000000000000000000027bcd1de1bdd9a40814e2d4bdc500c52c76938e70000000000000000000000000000000000000000000000000000000000000020000000000000000000000000431306040c181e768c4301a7bfd4fc6a770e833f",
        "nonce": "0x89",
        "chainId": "0xaa36a7"
      },
      "additionalContracts": [],
      "isFixedGasLimit": false
    }
  ],
  "receipts": [
    {
      "status": "0x1",
      "cumulativeGasUsed": "0x1142156",
      "logs": [
        {
          "address": "0x37e2d4a9469d08eb8d5e910d478cc239ee75aecf",
          "topics": [
            "0x7d628c9a1796743d365ab521a8b2a4686e419b3269919dc9145ea2ce853b54ea",
            "0x0000000000000000000000000000000000000000000000008f90b8876dee6538"
          ],
          "data": "0x0000000000000000000000000000000000000000000000000000000000000020000000000000000000000000000000000000000000000000000000000000002000000000000000000000000027bcd1de1bdd9a40814e2d4bdc500c52c76938e7",
          "blockHash": "0x720f23eec1887516004e609ecb95e8b558875f428f132ae01e62e3168d7fd82e",
          "blockNumber": "0xa3eceb",
          "blockTimestamp": "0x69ef6cb8",
          "transactionHash": "0xc3df1c3628b2fe00eaad8b4437aa3d71335abada03207f32a36f9c01ef0e5961",
          "transactionIndex": "0x6f",
          "logIndex": "0x2a8",
          "removed": false
        },
        {
          "address": "0x37e2d4a9469d08eb8d5e910d478cc239ee75aecf",
          "topics": [
            "0x8d340f17e19058004c20453540862a9c62778504476f6756755cb33bcd6c38c2"
          ],
          "data": "0x0000000000000000000000000000000000000000000000008f90b8876dee653800000000000000000000000000000000000000000000000000000000000001000000000000000000000000000000000000000000000000000000000000000000000000000000000000000000000000000000000000000000000000000000000000000000000000000000000000000000000000000000000000000000000000000000000000000000000000000000000000000000000000000000000000000000000000000000000000000000000000000000000000000000000000000000000000000000000000000000000000000000000000000000000000000000000000000000000000000000000000000000000000000000000000000000000000000020000000000000000000000000431306040c181e768c4301a7bfd4fc6a770e833f",
          "blockHash": "0x720f23eec1887516004e609ecb95e8b558875f428f132ae01e62e3168d7fd82e",
          "blockNumber": "0xa3eceb",
          "blockTimestamp": "0x69ef6cb8",
          "transactionHash": "0xc3df1c3628b2fe00eaad8b4437aa3d71335abada03207f32a36f9c01ef0e5961",
          "transactionIndex": "0x6f",
          "logIndex": "0x2a9",
          "removed": false
        }
      ],
      "logsBloom": "0x00000000000000400000000000000000000000000000000000000000000000000000000000000000000000000000000000000000000000000004000000000004000000000000000000000000000000000000000400000000000000000000200000000000000000000000000000000000000000000000000000000000000000404000000000000000000000000000000000010000000000000000000000000000000000000000000000000000000000000000000000000000000000000000000000000000000000000000000000000000000000000040000200000000000000000000000000000000000000000000000000000000008000000100000000000000",
      "type": "0x2",
      "transactionHash": "0xc3df1c3628b2fe00eaad8b4437aa3d71335abada03207f32a36f9c01ef0e5961",
      "transactionIndex": "0x6f",
      "blockHash": "0x720f23eec1887516004e609ecb95e8b558875f428f132ae01e62e3168d7fd82e",
      "blockNumber": "0xa3eceb",
      "gasUsed": "0x4b99c",
      "effectiveGasPrice": "0x11404bdd",
      "from": "0x0aacd99bc8378327df99543036a89c0ea5793e66",
      "to": "0x37e2d4a9469d08eb8d5e910d478cc239ee75aecf",
      "contractAddress": null
    }
  ],
  "libraries": [],
  "pending": [],
  "returns": {},
  "timestamp": 1777298617707,
  "chain": 11155111,
  "commit": "495b887"
}