{
  "transactions": [
    {
      "hash": "0x8abb658399f55180a8727e0b49070eafe0219b74b92c6c685106dd163e5e2dd9",
      "transactionType": "CALL",
      "contractName": null,
      "contractAddress": "0x7ebb65fc69f94cf11f754b102950edab38343536",
      "function": "applyChainUpdates(uint64[],(uint64,bytes[],bytes,(bool,uint128,uint128),(bool,uint128,uint128))[])",
      "arguments": [
        "[]",
        "[(10344971235874465080, [0x00000000000000000000000027bcd1de1bdd9a40814e2d4bdc500c52c76938e7], 0x000000000000000000000000431306040c181e768c4301a7bfd4fc6a770e833f, (false, 0, 0), (false, 0, 0))]"
      ],
      "transaction": {
        "from": "0x0b332c99fd6511ca9faf9654dfcf18c575941094",
        "to": "0x7ebb65fc69f94cf11f754b102950edab38343536",
        "gas": "0x686c4",
        "value": "0x0",
        "input": "0xe8a1da17000000000000000000000000000000000000000000000000000000000000004000000000000000000000000000000000000000000000000000000000000000600000000000000000000000000000000000000000000000000000000000000000000000000000000000000000000000000000000000000000000000000000000100000000000000000000000000000000000000000000000000000000000000200000000000000000000000000000000000000000000000008f90b8876dee6538000000000000000000000000000000000000000000000000000000000000012000000000000000000000000000000000000000000000000000000000000001a000000000000000000000000000000000000000000000000000000000000000000000000000000000000000000000000000000000000000000000000000000000000000000000000000000000000000000000000000000000000000000000000000000000000000000000000000000000000000000000000000000000000000000000000000000000000000000000000000000000000000000000000000000000000000000000000000000000000000000000000000000000000000000000000000000000000000000000000000000000000000000000000000000000000000010000000000000000000000000000000000000000000000000000000000000020000000000000000000000000000000000000000000000000000000000000002000000000000000000000000027bcd1de1bdd9a40814e2d4bdc500c52c76938e70000000000000000000000000000000000000000000000000000000000000020000000000000000000000000431306040c181e768c4301a7bfd4fc6a770e833f",
        "nonce": "0x88",
        "chainId": "0xaa36a7"
      },
      "additionalContracts": [],
      "isFixedGasLimit": false
    }
  ],
  "receipts": [
    {
      "status": "0x1",
      "cumulativeGasUsed": "0xd82258",
      "logs": [
        {
          "address": "0x7ebb65fc69f94cf11f754b102950edab38343536",
          "topics": [
            "0x7d628c9a1796743d365ab521a8b2a4686e419b3269919dc9145ea2ce853b54ea",
            "0x0000000000000000000000000000000000000000000000008f90b8876dee6538"
          ],
          "data": "0x0000000000000000000000000000000000000000000000000000000000000020000000000000000000000000000000000000000000000000000000000000002000000000000000000000000027bcd1de1bdd9a40814e2d4bdc500c52c76938e7",
          "blockHash": "0x4b166406687b5580f762d6c7079a44795b900c2b799f263bd34aff50c773a818",
          "blockNumber": "0x94b102",
          "blockTimestamp": "0x692d5664",
          "transactionHash": "0x8abb658399f55180a8727e0b49070eafe0219b74b92c6c685106dd163e5e2dd9",
          "transactionIndex": "0x6a",
          "logIndex": "0xee",
          "removed": false
        },
        {
          "address": "0x7ebb65fc69f94cf11f754b102950edab38343536",
          "topics": [
            "0x8d340f17e19058004c20453540862a9c62778504476f6756755cb33bcd6c38c2"
          ],
          "data": "0x0000000000000000000000000000000000000000000000008f90b8876dee653800000000000000000000000000000000000000000000000000000000000001000000000000000000000000000000000000000000000000000000000000000000000000000000000000000000000000000000000000000000000000000000000000000000000000000000000000000000000000000000000000000000000000000000000000000000000000000000000000000000000000000000000000000000000000000000000000000000000000000000000000000000000000000000000000000000000000000000000000000000000000000000000000000000000000000000000000000000000000000000000000000000000000000000000000000020000000000000000000000000431306040c181e768c4301a7bfd4fc6a770e833f",
          "blockHash": "0x4b166406687b5580f762d6c7079a44795b900c2b799f263bd34aff50c773a818",
          "blockNumber": "0x94b102",
          "blockTimestamp": "0x692d5664",
          "transactionHash": "0x8abb658399f55180a8727e0b49070eafe0219b74b92c6c685106dd163e5e2dd9",
          "transactionIndex": "0x6a",
          "logIndex": "0xef",
          "removed": false
        }
      ],
      "logsBloom": "0x00000000000000400000000000000000000000000000000000000000000000000000000000000010000000000000000000000000000000000004000000000004000000000000000000000000000000000000000400000000000000000000200000000000000000000000000000000000000000000000000000000000000000404000000000000002000000000000000000000000000000000000000000000000000000000000000000000000000000000002000000000000000000000000000000000000000000000000000000000000000000000000000000000000000000000000000000000000000000000000000000000000008000000100000000000000",
      "type": "0x2",
      "transactionHash": "0x8abb658399f55180a8727e0b49070eafe0219b74b92c6c685106dd163e5e2dd9",
      "transactionIndex": "0x6a",
      "blockHash": "0x4b166406687b5580f762d6c7079a44795b900c2b799f263bd34aff50c773a818",
      "blockNumber": "0x94b102",
      "gasUsed": "0x4b99c",
      "effectiveGasPrice": "0xfdc7d",
      "from": "0x0b332c99fd6511ca9faf9654dfcf18c575941094",
      "to": "0x7ebb65fc69f94cf11f754b102950edab38343536",
      "contractAddress": null
    }
  ],
  "libraries": [],
  "pending": [],
  "returns": {},
  "timestamp": 1764578918,
  "chain": 11155111,
  "commit": null
}