{
  "transactions": [
    {
      "hash": "0x59cd77d92d4c74740abccb06405aae502a20c90e49d9bf7d4dad3522751e562b",
      "transactionType": "CALL",
      "contractName": null,
      "contractAddress": "0x736d0bbb318c1b27ff686cd19804094e66250e17",
      "function": "setPool(address,address)",
      "arguments": [
        "0x431306040c181E768C4301a7bfD4fC6a770E833F",
        "0x27BCD1de1BDd9a40814e2d4BdC500C52c76938e7"
      ],
      "transaction": {
        "from": "0x0b332c99fd6511ca9faf9654dfcf18c575941094",
        "to": "0x736d0bbb318c1b27ff686cd19804094e66250e17",
        "gas": "0x11882",
        "value": "0x0",
        "input": "0x4e847fc7000000000000000000000000431306040c181e768c4301a7bfd4fc6a770e833f00000000000000000000000027bcd1de1bdd9a40814e2d4bdc500c52c76938e7",
        "nonce": "0x6",
        "chainId": "0x14a34"
      },
      "additionalContracts": [],
      "isFixedGasLimit": false
    }
  ],
  "receipts": [
    {
      "status": "0x1",
      "cumulativeGasUsed": "0xa623f1",
      "logs": [
        {
          "address": "0x736d0bbb318c1b27ff686cd19804094e66250e17",
          "topics": [
            "0x754449ec3aff3bd528bfce43ae9319c4a381b67fcd1d20097b3b24dacaecc35d",
            "0x000000000000000000000000431306040c181e768c4301a7bfd4fc6a770e833f",
            "0x0000000000000000000000000000000000000000000000000000000000000000",
            "0x00000000000000000000000027bcd1de1bdd9a40814e2d4bdc500c52c76938e7"
          ],
          "data": "0x",
          "blockHash": "0xcddc9a9b52448c734b982ddbad22b0c50e532570b4716f30f30a8624ca7be366",
          "blockNumber": "0x20cfbab",
          "blockTimestamp": "0x692d5636",
          "transactionHash": "0x59cd77d92d4c74740abccb06405aae502a20c90e49d9bf7d4dad3522751e562b",
          "transactionIndex": "0x18",
          "logIndex": "0xd1",
          "removed": false
        }
      ],
      "logsBloom": "0x00000000000400000000000000000000010000000000000000000000000000000000000000000000000000000000000000000000000000000000000000000000010000000000000000000000000000000000000001000000000000000000000008000000020000000000000000000800000000000000000000000000000000000000000000000000000000000000000000000000080000000000000000000000000000000000000000000000000000000000020000000000000000000000000001000000000000000000000000000000000000000000020000000000000020000000000000000000000000000000000000000002000000000000800001000000",
      "type": "0x2",
      "transactionHash": "0x59cd77d92d4c74740abccb06405aae502a20c90e49d9bf7d4dad3522751e562b",
      "transactionIndex": "0x18",
      "blockHash": "0xcddc9a9b52448c734b982ddbad22b0c50e532570b4716f30f30a8624ca7be366",
      "blockNumber": "0x20cfbab",
      "gasUsed": "0xcb16",
      "effectiveGasPrice": "0x19db4c",
      "blobGasUsed": "0x79e0",
      "from": "0x0b332c99fd6511ca9faf9654dfcf18c575941094",
      "to": "0x736d0bbb318c1b27ff686cd19804094e66250e17",
      "contractAddress": null,
      "daFootprintGasScalar": "0x138",
      "l1BaseFeeScalar": "0x44d",
      "l1BlobBaseFee": "0x1",
      "l1BlobBaseFeeScalar": "0xa118b",
      "l1Fee": "0x53",
      "l1GasPrice": "0xa",
      "l1GasUsed": "0x640"
    }
  ],
  "libraries": [],
  "pending": [],
  "returns": {},
  "timestamp": 1764578870,
  "chain": 84532,
  "commit": null
}