{
  "transactions": [
    {
      "hash": "0x54ce86a82c4b306b25a1e9c579b2b3e9279f66d1becf411d6b9e4f649ac8eedc",
      "transactionType": "CALL",
      "contractName": "TokenAdminRegistry",
      "contractAddress": "0x736d0bbb318c1b27ff686cd19804094e66250e17",
      "function": "setPool(address,address)",
      "arguments": [
        "0x102Acb6408E4a568D9dD4113BB95a5c0b76d08AC",
        "0xE73C39A552b1b757d58CF0D3Ef028b61F7503Cb1"
      ],
      "transaction": {
        "from": "0x0aacd99bc8378327df99543036a89c0ea5793e66",
        "to": "0x736d0bbb318c1b27ff686cd19804094e66250e17",
        "gas": "0x12895",
        "value": "0x0",
        "input": "0x4e847fc7000000000000000000000000102acb6408e4a568d9dd4113bb95a5c0b76d08ac000000000000000000000000e73c39a552b1b757d58cf0d3ef028b61f7503cb1",
        "nonce": "0x6",
        "chainId": "0x14a34"
      },
      "additionalContracts": [],
      "isFixedGasLimit": false
    }
  ],
  "receipts": [
    {
      "status": "0x1",
      "cumulativeGasUsed": "0x79e0a4",
      "logs": [
        {
          "address": "0x736d0bbb318c1b27ff686cd19804094e66250e17",
          "topics": [
            "0x754449ec3aff3bd528bfce43ae9319c4a381b67fcd1d20097b3b24dacaecc35d",
            "0x000000000000000000000000102acb6408e4a568d9dd4113bb95a5c0b76d08ac",
            "0x0000000000000000000000000000000000000000000000000000000000000000",
            "0x000000000000000000000000e73c39a552b1b757d58cf0d3ef028b61f7503cb1"
          ],
          "data": "0x",
          "blockHash": "0x0000000000000000000000000000000000000000000000000000000000000000",
          "blockNumber": "0x26e1024",
          "blockTimestamp": "0x69ef7f28",
          "transactionHash": "0x54ce86a82c4b306b25a1e9c579b2b3e9279f66d1becf411d6b9e4f649ac8eedc",
          "transactionIndex": "0x14",
          "logIndex": "0x115",
          "removed": false
        }
      ],
      "logsBloom": "0x00000000000400000002000000000000000000000000000000000000000000000000000000080000000000000004000000000000000000000400000000000000000000000000000000000000000000000000000001000000000000000000000000000000020000000000000000000800000000000000000000000000000000000000000000000000000000000000000000000000000000000000000000000000000000000000000000000000000000000000020000000000000000000000000001000000000000000000000000000000000000000000020000000000000020000020000000000000000000000000000000000000000000000000020001000000",
      "type": "0x2",
      "transactionHash": "0x54ce86a82c4b306b25a1e9c579b2b3e9279f66d1becf411d6b9e4f649ac8eedc",
      "transactionIndex": "0x14",
      "blockHash": "0x0000000000000000000000000000000000000000000000000000000000000000",
      "blockNumber": "0x26e1024",
      "gasUsed": "0xcacb",
      "effectiveGasPrice": "0x5b8d80",
      "blobGasUsed": "0x39d0",
      "from": "0x0aacd99bc8378327df99543036a89c0ea5793e66",
      "to": "0x736d0bbb318c1b27ff686cd19804094e66250e17",
      "contractAddress": null,
      "daFootprintGasScalar": "0x94",
      "l1BaseFeeScalar": "0x44d",
      "l1BlobBaseFee": "0x764961",
      "l1BlobBaseFeeScalar": "0xa118b",
      "l1Fee": "0x2b67f936",
      "l1GasPrice": "0x7552ad6",
      "l1GasUsed": "0x640"
    }
  ],
  "libraries": [],
  "pending": [],
  "returns": {},
  "timestamp": 1777303335866,
  "chain": 84532,
  "commit": "495b887"
}