{
  "transactions": [
    {
      "hash": "0x1640ff20b1b637fda59dd51fd72d4e7dd22d59627c685b077f92ef873d92d31d",
      "transactionType": "CALL",
      "contractName": null,
      "contractAddress": "0xdc1d17004a2a724d5aa9f6b428c56814abd156d9",
      "function": "approve(address,uint256)",
      "arguments": [
        "0x0BF3dE8c5D3e8A2B34D2BEeB17ABfCeBaf363A59",
        "100000000000000000"
      ],
      "transaction": {
        "from": "0x0b332c99fd6511ca9faf9654dfcf18c575941094",
        "to": "0xdc1d17004a2a724d5aa9f6b428c56814abd156d9",
        "gas": "0xfa49",
        "value": "0x0",
        "input": "0x095ea7b30000000000000000000000000bf3de8c5d3e8a2b34d2beeb17abfcebaf363a59000000000000000000000000000000000000000000000000016345785d8a0000",
        "nonce": "0x8a",
        "chainId": "0xaa36a7"
      },
      "additionalContracts": [],
      "isFixedGasLimit": false
    },
    {
      "hash": "0x5520a30e9dfe4374ba959fb8d68d790b0bfe37215f640b8e0ca3a3ae3be0f221",
      "transactionType": "CALL",
      "contractName": null,
      "contractAddress": "0x0bf3de8c5d3e8a2b34d2beeb17abfcebaf363a59",
      "function": "ccipSend(uint64,(bytes,bytes,(address,uint256)[],address,bytes))",
      "arguments": [
        "10344971235874465080",
        "(0x0000000000000000000000000b332c99fd6511ca9faf9654dfcf18c575941094, 0x, [(0xDC1D17004a2A724d5aa9f6B428C56814aBD156D9, 100000000000000000)], 0x0000000000000000000000000000000000000000, 0x97a657c90000000000000000000000000000000000000000000000000000000000000000)"
      ],
      "transaction": {
        "from": "0x0b332c99fd6511ca9faf9654dfcf18c575941094",
        "to": "0x0bf3de8c5d3e8a2b34d2beeb17abfcebaf363a59",
        "gas": "0x4a96f",
        "value": "0x4bd1a5c7e849",
        "input": "0x96f4e9f90000000000000000000000000000000000000000000000008f90b8876dee6538000000000000000000000000000000000000000000000000000000000000004000000000000000000000000000000000000000000000000000000000000000a000000000000000000000000000000000000000000000000000000000000000e000000000000000000000000000000000000000000000000000000000000001000000000000000000000000000000000000000000000000000000000000000000000000000000000000000000000000000000000000000000000000000000016000000000000000000000000000000000000000000000000000000000000000200000000000000000000000000b332c99fd6511ca9faf9654dfcf18c57594109400000000000000000000000000000000000000000000000000000000000000000000000000000000000000000000000000000000000000000000000000000001000000000000000000000000dc1d17004a2a724d5aa9f6b428c56814abd156d9000000000000000000000000000000000000000000000000016345785d8a0000000000000000000000000000000000000000000000000000000000000000002497a657c9000000000000000000000000000000000000000000000000000000000000000000000000000000000000000000000000000000000000000000000000",
        "nonce": "0x8b",
        "chainId": "0xaa36a7"
      },
      "additionalContracts": [],
      "isFixedGasLimit": false
    }
  ],
  "receipts": [
    {
      "status": "0x1",
      "cumulativeGasUsed": "0xa22822",
      "logs": [
        {
          "address": "0xdc1d17004a2a724d5aa9f6b428c56814abd156d9",
          "topics": [
            "0x8c5be1e5ebec7d5bd14f71427d1e84f3dd0314c0f7b2291e5b200ac8c7c3b925",
            "0x0000000000000000000000000b332c99fd6511ca9faf9654dfcf18c575941094",
            "0x0000000000000000000000000bf3de8c5d3e8a2b34d2beeb17abfcebaf363a59"
          ],
          "data": "0x000000000000000000000000000000000000000000000000016345785d8a0000",
          "blockHash": "0xa762b0d4fe1e140bc6160b12a0c3c3d30ebc7a3275395263292a88d408ab9c3c",
          "blockNumber": "0x94b10b",
          "blockTimestamp": "0x692d56d0",
          "transactionHash": "0x1640ff20b1b637fda59dd51fd72d4e7dd22d59627c685b077f92ef873d92d31d",
          "transactionIndex": "0x56",
          "logIndex": "0x7c",
          "removed": false
        }
      ],
      "logsBloom": "0x00000000000040000000000000000000000000000000000000000000000000000000000000000000000800000000000000000000000000000000000000200000000000000000000000000000000800000000000000000004000000000000000000000000000100000000000000000000000040000000000000000000000000000000000000000000000000000000000000000000000000000000080000000000020000000000080000000000000000000000000000000000000000000000000000000000000000000000000000000000000000000000000000000000000000000010000000000000000000000000000000000000000000100000000000000000",
      "type": "0x2",
      "transactionHash": "0x1640ff20b1b637fda59dd51fd72d4e7dd22d59627c685b077f92ef873d92d31d",
      "transactionIndex": "0x56",
      "blockHash": "0xa762b0d4fe1e140bc6160b12a0c3c3d30ebc7a3275395263292a88d408ab9c3c",
      "blockNumber": "0x94b10b",
      "gasUsed": "0xb534",
      "effectiveGasPrice": "0xfe2e9",
      "from": "0x0b332c99fd6511ca9faf9654dfcf18c575941094",
      "to": "0xdc1d17004a2a724d5aa9f6b428c56814abd156d9",
      "contractAddress": null
    },
    {
      "status": "0x1",
      "cumulativeGasUsed": "0xa58829",
      "logs": [
        {
          "address": "0x097d90c9d3e0b50ca60e1ae45f6a81010f9fb534",
          "topics": [
            "0xe1fffcc4923d04b559f4d29a8bfc6cda04eb5b0d3c460751c2402c5c5cc9109c",
            "0x0000000000000000000000000bf3de8c5d3e8a2b34d2beeb17abfcebaf363a59"
          ],
          "data": "0x00000000000000000000000000000000000000000000000000004bd1a5c7e849",
          "blockHash": "0xa762b0d4fe1e140bc6160b12a0c3c3d30ebc7a3275395263292a88d408ab9c3c",
          "blockNumber": "0x94b10b",
          "blockTimestamp": "0x692d56d0",
          "transactionHash": "0x5520a30e9dfe4374ba959fb8d68d790b0bfe37215f640b8e0ca3a3ae3be0f221",
          "transactionIndex": "0x57",
          "logIndex": "0x7d",
          "removed": false
        },
        {
          "address": "0x097d90c9d3e0b50ca60e1ae45f6a81010f9fb534",
          "topics": [
            "0xddf252ad1be2c89b69c2b068fc378daa952ba7f163c4a11628f55a4df523b3ef",
            "0x0000000000000000000000000bf3de8c5d3e8a2b34d2beeb17abfcebaf363a59",
            "0x0000000000000000000000008f35b097022135e0f46831f798a240cc8c4b0b01"
          ],
          "data": "0x00000000000000000000000000000000000000000000000000004bd1a5c7e849",
          "blockHash": "0xa762b0d4fe1e140bc6160b12a0c3c3d30ebc7a3275395263292a88d408ab9c3c",
          "blockNumber": "0x94b10b",
          "blockTimestamp": "0x692d56d0",
          "transactionHash": "0x5520a30e9dfe4374ba959fb8d68d790b0bfe37215f640b8e0ca3a3ae3be0f221",
          "transactionIndex": "0x57",
          "logIndex": "0x7e",
          "removed": false
        },
        {
          "address": "0xdc1d17004a2a724d5aa9f6b428c56814abd156d9",
          "topics": [
            "0x8c5be1e5ebec7d5bd14f71427d1e84f3dd0314c0f7b2291e5b200ac8c7c3b925",
            "0x0000000000000000000000000b332c99fd6511ca9faf9654dfcf18c575941094",
            "0x0000000000000000000000000bf3de8c5d3e8a2b34d2beeb17abfcebaf363a59"
          ],
          "data": "0x0000000000000000000000000000000000000000000000000000000000000000",
          "blockHash": "0xa762b0d4fe1e140bc6160b12a0c3c3d30ebc7a3275395263292a88d408ab9c3c",
          "blockNumber": "0x94b10b",
          "blockTimestamp": "0x692d56d0",
          "transactionHash": "0x5520a30e9dfe4374ba959fb8d68d790b0bfe37215f640b8e0ca3a3ae3be0f221",
          "transactionIndex": "0x57",
          "logIndex": "0x7f",
          "removed": false
        },
        {
          "address": "0xdc1d17004a2a724d5aa9f6b428c56814abd156d9",
          "topics": [
            "0xddf252ad1be2c89b69c2b068fc378daa952ba7f163c4a11628f55a4df523b3ef",
            "0x0000000000000000000000000b332c99fd6511ca9faf9654dfcf18c575941094",
            "0x0000000000000000000000007ebb65fc69f94cf11f754b102950edab38343536"
          ],
          "data": "0x000000000000000000000000000000000000000000000000016345785d8a0000",
          "blockHash": "0xa762b0d4fe1e140bc6160b12a0c3c3d30ebc7a3275395263292a88d408ab9c3c",
          "blockNumber": "0x94b10b",
          "blockTimestamp": "0x692d56d0",
          "transactionHash": "0x5520a30e9dfe4374ba959fb8d68d790b0bfe37215f640b8e0ca3a3ae3be0f221",
          "transactionIndex": "0x57",
          "logIndex": "0x80",
          "removed": false
        },
        {
          "address": "0xdc1d17004a2a724d5aa9f6b428c56814abd156d9",
          "topics": [
            "0xddf252ad1be2c89b69c2b068fc378daa952ba7f163c4a11628f55a4df523b3ef",
            "0x0000000000000000000000007ebb65fc69f94cf11f754b102950edab38343536",
            "0x0000000000000000000000000000000000000000000000000000000000000000"
          ],
          "data": "0x000000000000000000000000000000000000000000000000016345785d8a0000",
          "blockHash": "0xa762b0d4fe1e140bc6160b12a0c3c3d30ebc7a3275395263292a88d408ab9c3c",
          "blockNumber": "0x94b10b",
          "blockTimestamp": "0x692d56d0",
          "transactionHash": "0x5520a30e9dfe4374ba959fb8d68d790b0bfe37215f640b8e0ca3a3ae3be0f221",
          "transactionIndex": "0x57",
          "logIndex": "0x81",
          "removed": false
        },
        {
          "address": "0x7ebb65fc69f94cf11f754b102950edab38343536",
          "topics": [
            "0x696de425f79f4a40bc6d2122ca50507f0efbeabbff86a84871b7196ab8ea8df7",
            "0x0000000000000000000000008f35b097022135e0f46831f798a240cc8c4b0b01"
          ],
          "data": "0x000000000000000000000000000000000000000000000000016345785d8a0000",
          "blockHash": "0xa762b0d4fe1e140bc6160b12a0c3c3d30ebc7a3275395263292a88d408ab9c3c",
          "blockNumber": "0x94b10b",
          "blockTimestamp": "0x692d56d0",
          "transactionHash": "0x5520a30e9dfe4374ba959fb8d68d790b0bfe37215f640b8e0ca3a3ae3be0f221",
          "transactionIndex": "0x57",
          "logIndex": "0x82",
          "removed": false
        },
        {
          "address": "0x8f35b097022135e0f46831f798a240cc8c4b0b01",
          "topics": [
            "0xd0c3c799bf9e2639de44391e7f524d229b2b55f5b1ea94b2bf7da42f7243dddd"
          ],
          "data": "0x0000000000000000000000000000000000000000000000000000000000000020000000000000000000000000000000000000000000000000de41ba4fc9d91ad90000000000000000000000000b332c99fd6511ca9faf9654dfcf18c5759410940000000000000000000000000b332c99fd6511ca9faf9654dfcf18c575941094000000000000000000000000000000000000000000000000000000000000601d000000000000000000000000000000000000000000000000000000000000000000000000000000000000000000000000000000000000000000000000000000000000000000000000000000000000000000000000000000000000000000000001000000000000000000000000097d90c9d3e0b50ca60e1ae45f6a81010f9fb53400000000000000000000000000000000000000000000000000004bd1a5c7e84900000000000000000000000000000000000000000000000000000000000001a000000000000000000000000000000000000000000000000000000000000001c0000000000000000000000000000000000000000000000000000000000000022012158e8a873e0666f1f37ccd5050562213398e4deb7c7ab9b9fe91236401490200000000000000000000000000000000000000000000000000000000000000000000000000000000000000000000000000000000000000000000000000000001000000000000000000000000dc1d17004a2a724d5aa9f6b428c56814abd156d9000000000000000000000000000000000000000000000000016345785d8a00000000000000000000000000000000000000000000000000000000000000000001000000000000000000000000000000000000000000000000000000000000002000000000000000000000000000000000000000000000000000000000000001600000000000000000000000000000000000000000000000000000000000000020000000000000000000000000000000000000000000000000000000000000008000000000000000000000000000000000000000000000000000000000000000c000000000000000000000000000000000000000000000000000000000000001000000000000000000000000000000000000000000000000000000000000015f9000000000000000000000000000000000000000000000000000000000000000200000000000000000000000007ebb65fc69f94cf11f754b102950edab383435360000000000000000000000000000000000000000000000000000000000000020000000000000000000000000431306040c181e768c4301a7bfd4fc6a770e833f00000000000000000000000000000000000000000000000000000000000000200000000000000000000000000000000000000000000000000000000000000012",
          "blockHash": "0xa762b0d4fe1e140bc6160b12a0c3c3d30ebc7a3275395263292a88d408ab9c3c",
          "blockNumber": "0x94b10b",
          "blockTimestamp": "0x692d56d0",
          "transactionHash": "0x5520a30e9dfe4374ba959fb8d68d790b0bfe37215f640b8e0ca3a3ae3be0f221",
          "transactionIndex": "0x57",
          "logIndex": "0x83",
          "removed": false
        }
      ],
      "logsBloom": "0x00000000000040000000000000000000000000000000000000000000008000000000000000000010002800000000000000000000000040000000000000200000000000000000000000000008000800000000000000000004000000008000000000000000060100000000000010000802000040000800000000000010000000000000000000000002000000000000000000000001000000000000880000000000020000000000080400000000000000000002000000000000000100001000000000000002000000100000000000080000000000000000000400000000000024000010000040000000000000000000000004000000000000500000000000000000",
      "type": "0x2",
      "transactionHash": "0x5520a30e9dfe4374ba959fb8d68d790b0bfe37215f640b8e0ca3a3ae3be0f221",
      "transactionIndex": "0x57",
      "blockHash": "0xa762b0d4fe1e140bc6160b12a0c3c3d30ebc7a3275395263292a88d408ab9c3c",
      "blockNumber": "0x94b10b",
      "gasUsed": "0x36007",
      "effectiveGasPrice": "0xfe2e9",
      "from": "0x0b332c99fd6511ca9faf9654dfcf18c575941094",
      "to": "0x0bf3de8c5d3e8a2b34d2beeb17abfcebaf363a59",
      "contractAddress": null
    }
  ],
  "libraries": [],
  "pending": [],
  "returns": {},
  "timestamp": 1764579026,
  "chain": 11155111,
  "commit": null
}