{
  "transactions": [
    {
      "hash": "0x87694167779c3b9e0174d1e4cc004987126c0c2b33cc6f0a22a1f1b21e7896f1",
      "transactionType": "CALL",
      "contractName": null,
      "contractAddress": "0xe73c39a552b1b757d58cf0d3ef028b61f7503cb1",
      "function": "applyChainUpdates(uint64[],(uint64,bytes[],bytes,(bool,uint128,uint128),(bool,uint128,uint128))[])",
      "arguments": [
        "[]",
        "[(16015286601757825753, [0x00000000000000000000000037e2d4a9469d08eb8d5e910d478cc239ee75aecf], 0x0000000000000000000000001e92b3d42520fc9755730a80537b55bb8731a295, (false, 0, 0), (false, 0, 0))]"
      ],
      "transaction": {
        "from": "0x0aacd99bc8378327df99543036a89c0ea5793e66",
        "to": "0xe73c39a552b1b757d58cf0d3ef028b61f7503cb1",
        "gas": "0x68a72",
        "value": "0x0",
        "input": "0xe8a1da1700000000000000000000000000000000000000000000000000000000000000400000000000000000000000000000000000000000000000000000000000000060000000000000000000000000000000000000000000000000000000000000000000000000000000000000000000000000000000000000000000000000000000010000000000000000000000000000000000000000000000000000000000000020000000000000000000000000000000000000000000000000de41ba4fc9d91ad9000000000000000000000000000000000000000000000000000000000000012000000000000000000000000000000000000000000000000000000000000001a000000000000000000000000000000000000000000000000000000000000000000000000000000000000000000000000000000000000000000000000000000000000000000000000000000000000000000000000000000000000000000000000000000000000000000000000000000000000000000000000000000000000000000000000000000000000000000000000000000000000000000000000000000000000000000000000000000000000000000000000000000000000000000000000000000000000000000000000000000000000000000000000000000000000000010000000000000000000000000000000000000000000000000000000000000020000000000000000000000000000000000000000000000000000000000000002000000000000000000000000037e2d4a9469d08eb8d5e910d478cc239ee75aecf00000000000000000000000000000000000000000000000000000000000000200000000000000000000000001e92b3d42520fc9755730a80537b55bb8731a295",
        "nonce": "0x7",
        "chainId": "0x14a34"
      },
      "additionalContracts": [],
      "isFixedGasLimit": false
    }
  ],
  "receipts": [
    {
      "status": "0x1",
      "cumulativeGasUsed": "0x2156d5",
      "logs": [
        {
          "address": "0xe73c39a552b1b757d58cf0d3ef028b61f7503cb1",
          "topics": [
            "0x7d628c9a1796743d365ab521a8b2a4686e419b3269919dc9145ea2ce853b54ea",
            "0x000000000000000000000000000000000000000000000000de41ba4fc9d91ad9"
          ],
          "data": "0x0000000000000000000000000000000000000000000000000000000000000020000000000000000000000000000000000000000000000000000000000000002000000000000000000000000037e2d4a9469d08eb8d5e910d478cc239ee75aecf",
          "blockHash": "0x0000000000000000000000000000000000000000000000000000000000000000",
          "blockNumber": "0x26e103c",
          "blockTimestamp": "0x69ef7f58",
          "transactionHash": "0x87694167779c3b9e0174d1e4cc004987126c0c2b33cc6f0a22a1f1b21e7896f1",
          "transactionIndex": "0x8",
          "logIndex": "0x4f",
          "removed": false
        },
        {
          "address": "0xe73c39a552b1b757d58cf0d3ef028b61f7503cb1",
          "topics": [
            "0x8d340f17e19058004c20453540862a9c62778504476f6756755cb33bcd6c38c2"
          ],
          "data": "0x000000000000000000000000000000000000000000000000de41ba4fc9d91ad9000000000000000000000000000000000000000000000000000000000000010000000000000000000000000000000000000000000000000000000000000000000000000000000000000000000000000000000000000000000000000000000000000000000000000000000000000000000000000000000000000000000000000000000000000000000000000000000000000000000000000000000000000000000000000000000000000000000000000000000000000000000000000000000000000000000000000000000000000000000000000000000000000000000000000000000000000000000000000000000000000000000000000000000000000000200000000000000000000000001e92b3d42520fc9755730a80537b55bb8731a295",
          "blockHash": "0x0000000000000000000000000000000000000000000000000000000000000000",
          "blockNumber": "0x26e103c",
          "blockTimestamp": "0x69ef7f58",
          "transactionHash": "0x87694167779c3b9e0174d1e4cc004987126c0c2b33cc6f0a22a1f1b21e7896f1",
          "transactionIndex": "0x8",
          "logIndex": "0x50",
          "removed": false
        }
      ],
      "logsBloom": "0x00000000000000400000000000000000000000000000000000000000000000000000000000004000000000000000000000010000000000000004000000000004100000000000000000000000000000000000000000000000000000000000000000000000000000000000000000010000000000000000000000000000000000400000000000000000000000000000000000000020000000000000000000000000000000000000000000002000000000000000000000000000000000000000000000000000000000000000000000000000000000000000000000000000000000000000000000000000000000000000000000000000008000000100000000000000",
      "type": "0x2",
      "transactionHash": "0x87694167779c3b9e0174d1e4cc004987126c0c2b33cc6f0a22a1f1b21e7896f1",
      "transactionIndex": "0x8",
      "blockHash": "0x0000000000000000000000000000000000000000000000000000000000000000",
      "blockNumber": "0x26e103c",
      "gasUsed": "0x4bc45",
      "effectiveGasPrice": "0x5b8d80",
      "blobGasUsed": "0x5908",
      "from": "0x0aacd99bc8378327df99543036a89c0ea5793e66",
      "to": "0xe73c39a552b1b757d58cf0d3ef028b61f7503cb1",
      "contractAddress": null,
      "daFootprintGasScalar": "0x94",
      "l1BaseFeeScalar": "0x44d",
      "l1BlobBaseFee": "0x7118b1",
      "l1BlobBaseFeeScalar": "0xa118b",
      "l1Fee": "0x2a082fe3",
      "l1GasPrice": "0x74fe1aa",
      "l1GasUsed": "0x9ad"
    }
  ],
  "libraries": [],
  "pending": [],
  "returns": {},
  "timestamp": 1777303382902,
  "chain": 84532,
  "commit": "495b887"
}