{
  "transactions": [
    {
      "hash": "0x9d43de0dfbf14ce2eb73508bdba343dff94948304a1997b261fa1d748e12ff48",
      "transactionType": "CALL",
      "contractName": null,
      "contractAddress": "0x27bcd1de1bdd9a40814e2d4bdc500c52c76938e7",
      "function": "applyChainUpdates(uint64[],(uint64,bytes[],bytes,(bool,uint128,uint128),(bool,uint128,uint128))[])",
      "arguments": [
        "[]",
        "[(16015286601757825753, [0x0000000000000000000000007ebb65fc69f94cf11f754b102950edab38343536], 0x000000000000000000000000dc1d17004a2a724d5aa9f6b428c56814abd156d9, (false, 0, 0), (false, 0, 0))]"
      ],
      "transaction": {
        "from": "0x0b332c99fd6511ca9faf9654dfcf18c575941094",
        "to": "0x27bcd1de1bdd9a40814e2d4bdc500c52c76938e7",
        "gas": "0x686b5",
        "value": "0x0",
        "input": "0xe8a1da1700000000000000000000000000000000000000000000000000000000000000400000000000000000000000000000000000000000000000000000000000000060000000000000000000000000000000000000000000000000000000000000000000000000000000000000000000000000000000000000000000000000000000010000000000000000000000000000000000000000000000000000000000000020000000000000000000000000000000000000000000000000de41ba4fc9d91ad9000000000000000000000000000000000000000000000000000000000000012000000000000000000000000000000000000000000000000000000000000001a00000000000000000000000000000000000000000000000000000000000000000000000000000000000000000000000000000000000000000000000000000000000000000000000000000000000000000000000000000000000000000000000000000000000000000000000000000000000000000000000000000000000000000000000000000000000000000000000000000000000000000000000000000000000000000000000000000000000000000000000000000000000000000000000000000000000000000000000000000000000000000000000000000000000000001000000000000000000000000000000000000000000000000000000000000002000000000000000000000000000000000000000000000000000000000000000200000000000000000000000007ebb65fc69f94cf11f754b102950edab383435360000000000000000000000000000000000000000000000000000000000000020000000000000000000000000dc1d17004a2a724d5aa9f6b428c56814abd156d9",
        "nonce": "0x7",
        "chainId": "0x14a34"
      },
      "additionalContracts": [],
      "isFixedGasLimit": false
    }
  ],
  "receipts": [
    {
      "status": "0x1",
      "cumulativeGasUsed": "0x4c6aff",
      "logs": [
        {
          "address": "0x27bcd1de1bdd9a40814e2d4bdc500c52c76938e7",
          "topics": [
            "0x7d628c9a1796743d365ab521a8b2a4686e419b3269919dc9145ea2ce853b54ea",
            "0x000000000000000000000000000000000000000000000000de41ba4fc9d91ad9"
          ],
          "data": "0x000000000000000000000000000000000000000000000000000000000000002000000000000000000000000000000000000000000000000000000000000000200000000000000000000000007ebb65fc69f94cf11f754b102950edab38343536",
          "blockHash": "0x4cac95755abc0bb434c28db7f69442a17d2aa9957aa96daa4b6d018b1587ca06",
          "blockNumber": "0x20cfbcf",
          "blockTimestamp": "0x692d567e",
          "transactionHash": "0x9d43de0dfbf14ce2eb73508bdba343dff94948304a1997b261fa1d748e12ff48",
          "transactionIndex": "0x10",
          "logIndex": "0xe1",
          "removed": false
        },
        {
          "address": "0x27bcd1de1bdd9a40814e2d4bdc500c52c76938e7",
          "topics": [
            "0x8d340f17e19058004c20453540862a9c62778504476f6756755cb33bcd6c38c2"
          ],
          "data": "0x000000000000000000000000000000000000000000000000de41ba4fc9d91ad900000000000000000000000000000000000000000000000000000000000001000000000000000000000000000000000000000000000000000000000000000000000000000000000000000000000000000000000000000000000000000000000000000000000000000000000000000000000000000000000000000000000000000000000000000000000000000000000000000000000000000000000000000000000000000000000000000000000000000000000000000000000000000000000000000000000000000000000000000000000000000000000000000000000000000000000000000000000000000000000000000000000000000000000000000020000000000000000000000000dc1d17004a2a724d5aa9f6b428c56814abd156d9",
          "blockHash": "0x4cac95755abc0bb434c28db7f69442a17d2aa9957aa96daa4b6d018b1587ca06",
          "blockNumber": "0x20cfbcf",
          "blockTimestamp": "0x692d567e",
          "transactionHash": "0x9d43de0dfbf14ce2eb73508bdba343dff94948304a1997b261fa1d748e12ff48",
          "transactionIndex": "0x10",
          "logIndex": "0xe2",
          "removed": false
        }
      ],
      "logsBloom": "0x00000000000000400000000000000000000000000000000000000000000000000000000000004000000000000000000000000000000000000004000000000004000000000000000000000000000000000000000000000000000000000000000000000000000000000000000000010000000000000000000000000000000000400000000000000000000020000000000000000020000000000000000000000000000000000000000000000000000000000000000010000000000000000000000000000000000000000000000000000000000000000000004000000000000000000000000000000000000000000000000000000000008000000100000000000000",
      "type": "0x2",
      "transactionHash": "0x9d43de0dfbf14ce2eb73508bdba343dff94948304a1997b261fa1d748e12ff48",
      "transactionIndex": "0x10",
      "blockHash": "0x4cac95755abc0bb434c28db7f69442a17d2aa9957aa96daa4b6d018b1587ca06",
      "blockNumber": "0x20cfbcf",
      "gasUsed": "0x4b990",
      "effectiveGasPrice": "0x17d614",
      "blobGasUsed": "0xbbb0",
      "from": "0x0b332c99fd6511ca9faf9654dfcf18c575941094",
      "to": "0x27bcd1de1bdd9a40814e2d4bdc500c52c76938e7",
      "contractAddress": null,
      "daFootprintGasScalar": "0x138",
      "l1BaseFeeScalar": "0x44d",
      "l1BlobBaseFee": "0x1",
      "l1BlobBaseFeeScalar": "0xa118b",
      "l1Fee": "0x81",
      "l1GasPrice": "0xa",
      "l1GasUsed": "0x9ad"
    }
  ],
  "libraries": [],
  "pending": [],
  "returns": {},
  "timestamp": 1764578942,
  "chain": 84532,
  "commit": null
}